{
  "contractName": "Voting",
  "abi": [
    {
      "inputs": [],
      "stateMutability": "nonpayable",
      "type": "constructor"
    },
    {
      "anonymous": false,
      "inputs": [
        {
          "indexed": false,
          "internalType": "address",
          "name": "Voter",
          "type": "address"
        },
        {
          "indexed": false,
          "internalType": "uint256",
          "name": "Time",
          "type": "uint256"
        }
      ],
      "name": "VoteCast",
      "type": "event"
    },
    {
      "anonymous": false,
      "inputs": [
        {
          "indexed": true,
          "internalType": "address",
          "name": "admin",
          "type": "address"
        },
        {
          "indexed": false,
          "internalType": "uint256",
          "name": "timestamp",
          "type": "uint256"
        }
      ],
      "name": "startVoteEvent",
      "type": "event"
    },
    {
      "anonymous": false,
      "inputs": [
        {
          "indexed": true,
          "internalType": "address",
          "name": "admin",
          "type": "address"
        },
        {
          "indexed": false,
          "internalType": "uint256",
          "name": "timestamp",
          "type": "uint256"
        }
      ],
      "name": "stopVoteEvent",
      "type": "event"
    },
    {
      "inputs": [
        {
          "internalType": "uint8",
          "name": "",
          "type": "uint8"
        }
      ],
      "name": "proposalVoteCount",
      "outputs": [
        {
          "internalType": "uint256",
          "name": "",
          "type": "uint256"
        }
      ],
      "stateMutability": "view",
      "type": "function",
      "constant": true
    },
    {
      "inputs": [
        {
          "internalType": "uint8",
          "name": "",
          "type": "uint8"
        }
      ],
      "name": "proposals",
      "outputs": [
        {
          "internalType": "string",
          "name": "proposal",
          "type": "string"
        },
        {
          "internalType": "uint256",
          "name": "timestamp",
          "type": "uint256"
        }
      ],
      "stateMutability": "view",
      "type": "function",
      "constant": true
    },
    {
      "inputs": [],
      "name": "voterCount",
      "outputs": [
        {
          "internalType": "uint256",
          "name": "",
          "type": "uint256"
        }
      ],
      "stateMutability": "view",
      "type": "function",
      "constant": true
    },
    {
      "inputs": [
        {
          "internalType": "string",
          "name": "_proposal",
          "type": "string"
        }
      ],
      "name": "addProposal",
      "outputs": [],
      "stateMutability": "nonpayable",
      "type": "function"
    },
    {
      "inputs": [],
      "name": "viewProposals",
      "outputs": [
        {
          "internalType": "uint8[]",
          "name": "",
          "type": "uint8[]"
        },
        {
          "internalType": "string[]",
          "name": "",
          "type": "string[]"
        }
      ],
      "stateMutability": "view",
      "type": "function",
      "constant": true
    },
    {
      "inputs": [
        {
          "internalType": "address",
          "name": "_voter",
          "type": "address"
        }
      ],
      "name": "addVoter",
      "outputs": [],
      "stateMutability": "nonpayable",
      "type": "function"
    },
    {
      "inputs": [
        {
          "internalType": "uint8",
          "name": "_proposalId",
          "type": "uint8"
        }
      ],
      "name": "addVote",
      "outputs": [
        {
          "internalType": "bool",
          "name": "",
          "type": "bool"
        }
      ],
      "stateMutability": "nonpayable",
      "type": "function"
    },
    {
      "inputs": [],
      "name": "getProposalVoteCount",
      "outputs": [
        {
          "internalType": "uint8[]",
          "name": "",
          "type": "uint8[]"
        },
        {
          "internalType": "uint256[]",
          "name": "",
          "type": "uint256[]"
        }
      ],
      "stateMutability": "view",
      "type": "function",
      "constant": true
    },
    {
      "inputs": [],
      "name": "startVote",
      "outputs": [
        {
          "internalType": "bool",
          "name": "",
          "type": "bool"
        }
      ],
      "stateMutability": "nonpayable",
      "type": "function"
    },
    {
      "inputs": [],
      "name": "stopVote",
      "outputs": [
        {
          "internalType": "bool",
          "name": "",
          "type": "bool"
        }
      ],
      "stateMutability": "nonpayable",
      "type": "function"
    }
  ],
  "bytecode": "0x608060405234801561001057600080fd5b5060008060146101000a81548160ff021916908315150217905550336000806101000a81548173ffffffffffffffffffffffffffffffffffffffff021916908373ffffffffffffffffffffffffffffffffffffffff1602179055506114bd8061007a6000396000f3fe608060405234801561001057600080fd5b506004361061009e5760003560e01c80637b47c273116100665780637b47c273146101495780637e96f4ca1461016857806384acf0f5146101875780639f8e5b49146101b8578063f4ab9adf146101e85761009e565b80632495c0ce146100a35780632fdae3c5146100c157806342169e48146100dd5780634c0a6af0146100fb5780635d814eab14610119575b600080fd5b6100ab610204565b6040516100b89190611049565b60405180910390f35b6100db60048036038101906100d69190610c30565b610275565b005b6100e56103a7565b6040516100f291906110f4565b60405180910390f35b6101036103ad565b6040516101109190611049565b60405180910390f35b610133600480360381019061012e9190610c71565b61041f565b6040516101409190611049565b60405180910390f35b610151610605565b60405161015f929190610fdb565b60405180910390f35b61017061075f565b60405161017e929190611012565b60405180910390f35b6101a1600480360381019061019c9190610c71565b61090d565b6040516101af929190611064565b60405180910390f35b6101d260048036038101906101cd9190610c71565b6109b9565b6040516101df91906110f4565b60405180910390f35b61020260048036038101906101fd9190610c07565b6109d1565b005b600080600060146101000a81548160ff0219169083151502179055503373ffffffffffffffffffffffffffffffffffffffff167fc92ffaf1bbf261bf69430b167f24a1f18c674da50585ce613153461462ee899b4260405161026691906110f4565b60405180910390a26001905090565b6006600081819054906101000a900460ff168092919061029490611391565b91906101000a81548160ff021916908360ff1602179055505060405180604001604052808281526020014281525060076000600660009054906101000a900460ff1660ff1660ff1681526020019081526020016000206000820151816000019080519060200190610306929190610ad2565b50602082015181600101559050506008600660009054906101000a900460ff1690806001815401808255809150506001900390600052602060002090602091828204019190069091909190916101000a81548160ff021916908360ff1602179055506009819080600181540180825580915050600190039060005260206000200160009091909190915090805190602001906103a3929190610ad2565b5050565b600a5481565b60006001600060146101000a81548160ff0219169083151502179055503373ffffffffffffffffffffffffffffffffffffffff167f24e8e671dece6be1d35fbf0a4e417ad54b31e388006edfd714f8679dc7ece88e4260405161041091906110f4565b60405180910390a26001905090565b600033600b60008273ffffffffffffffffffffffffffffffffffffffff1673ffffffffffffffffffffffffffffffffffffffff16815260200190815260200160002060009054906101000a900460ff166104ae576040517f08c379a00000000000000000000000000000000000000000000000000000000081526004016104a590611094565b60405180910390fd5b600560003373ffffffffffffffffffffffffffffffffffffffff1673ffffffffffffffffffffffffffffffffffffffff16815260200190815260200160002060009054906101000a900460ff161561053b576040517f08c379a0000000000000000000000000000000000000000000000000000000008152600401610532906110d4565b60405180910390fd5b6001600560003373ffffffffffffffffffffffffffffffffffffffff1673ffffffffffffffffffffffffffffffffffffffff16815260200190815260200160002060006101000a81548160ff021916908315150217905550600c60008460ff1660ff16815260200190815260200160002060008154809291906105bd90611348565b91905055507fa36cc2bebb74db33e9f88110a07ef56e1b31b24b4c4f51b54b1664266e29f45b33426040516105f3929190610fb2565b60405180910390a16001915050919050565b606080600860098180548060200260200160405190810160405280929190818152602001828054801561067d57602002820191906000526020600020906000905b82829054906101000a900460ff1660ff16815260200190600101906020826000010492830192600103820291508084116106465790505b5050505050915080805480602002602001604051908101604052809291908181526020016000905b828210156107515783829060005260206000200180546106c490611316565b80601f01602080910402602001604051908101604052809291908181526020018280546106f090611316565b801561073d5780601f106107125761010080835404028352916020019161073d565b820191906000526020600020905b81548152906001019060200180831161072057829003601f168201915b5050505050815260200190600101906106a5565b505050509050915091509091565b6060806000600660009054906101000a900460ff1660ff1667ffffffffffffffff8111156107b6577f4e487b7100000000000000000000000000000000000000000000000000000000600052604160045260246000fd5b6040519080825280602002602001820160405280156107e45781602001602082028036833780820191505090505b50905060005b600660009054906101000a900460ff1660ff168160ff16101561088857600c60006001836108189190611248565b60ff1660ff16815260200190815260200160002054828260ff1681518110610869577f4e487b7100000000000000000000000000000000000000000000000000000000600052603260045260246000fd5b602002602001018181525050808061088090611391565b9150506107ea565b50600881818054806020026020016040519081016040528092919081815260200182805480156108fd57602002820191906000526020600020906000905b82829054906101000a900460ff1660ff16815260200190600101906020826000010492830192600103820291508084116108c65790505b5050505050915092509250509091565b600760205280600052604060002060009150905080600001805461093090611316565b80601f016020809104026020016040519081016040528092919081815260200182805461095c90611316565b80156109a95780601f1061097e576101008083540402835291602001916109a9565b820191906000526020600020905b81548152906001019060200180831161098c57829003601f168201915b5050505050908060010154905082565b600c6020528060005260406000206000915090505481565b60008054906101000a900473ffffffffffffffffffffffffffffffffffffffff1673ffffffffffffffffffffffffffffffffffffffff163373ffffffffffffffffffffffffffffffffffffffff1614610a5f576040517f08c379a0000000000000000000000000000000000000000000000000000000008152600401610a56906110b4565b60405180910390fd5b6001600b60008373ffffffffffffffffffffffffffffffffffffffff1673ffffffffffffffffffffffffffffffffffffffff16815260200190815260200160002060006101000a81548160ff021916908315150217905550600a6000815480929190610aca90611348565b919050555050565b828054610ade90611316565b90600052602060002090601f016020900481019282610b005760008555610b47565b82601f10610b1957805160ff1916838001178555610b47565b82800160010185558215610b47579182015b82811115610b46578251825591602001919060010190610b2b565b5b509050610b549190610b58565b5090565b5b80821115610b71576000816000905550600101610b59565b5090565b6000610b88610b8384611140565b61110f565b905082815260208101848484011115610ba057600080fd5b610bab8482856112d4565b509392505050565b600081359050610bc281611459565b92915050565b600082601f830112610bd957600080fd5b8135610be9848260208601610b75565b91505092915050565b600081359050610c0181611470565b92915050565b600060208284031215610c1957600080fd5b6000610c2784828501610bb3565b91505092915050565b600060208284031215610c4257600080fd5b600082013567ffffffffffffffff811115610c5c57600080fd5b610c6884828501610bc8565b91505092915050565b600060208284031215610c8357600080fd5b6000610c9184828501610bf2565b91505092915050565b6000610ca68383610e2d565b905092915050565b6000610cba8383610f85565b60208301905092915050565b6000610cd28383610fa3565b60208301905092915050565b610ce78161127f565b82525050565b6000610cf8826111a0565b610d0281856111f3565b935083602082028501610d1485611170565b8060005b85811015610d505784840389528151610d318582610c9a565b9450610d3c836111cc565b925060208a01995050600181019050610d18565b50829750879550505050505092915050565b6000610d6d826111ab565b610d778185611204565b9350610d8283611180565b8060005b83811015610db3578151610d9a8882610cae565b9750610da5836111d9565b925050600181019050610d86565b5085935050505092915050565b6000610dcb826111b6565b610dd58185611215565b9350610de083611190565b8060005b83811015610e11578151610df88882610cc6565b9750610e03836111e6565b925050600181019050610de4565b5085935050505092915050565b610e2781611291565b82525050565b6000610e38826111c1565b610e428185611226565b9350610e528185602086016112e3565b610e5b81611448565b840191505092915050565b6000610e71826111c1565b610e7b8185611237565b9350610e8b8185602086016112e3565b610e9481611448565b840191505092915050565b6000610eac601183611237565b91507f4e6f7420612076616c696420766f7465720000000000000000000000000000006000830152602082019050919050565b6000610eec602883611237565b91507f4f6e6c79206368616972706572736f6e2063616e20676976652072696768742060008301527f746f20766f74652e0000000000000000000000000000000000000000000000006020830152604082019050919050565b6000610f52601c83611237565b91507f5468697320757365722068617320616c726561647920566f74656421000000006000830152602082019050919050565b610f8e816112bd565b82525050565b610f9d816112bd565b82525050565b610fac816112c7565b82525050565b6000604082019050610fc76000830185610cde565b610fd46020830184610f94565b9392505050565b60006040820190508181036000830152610ff58185610dc0565b905081810360208301526110098184610ced565b90509392505050565b6000604082019050818103600083015261102c8185610dc0565b905081810360208301526110408184610d62565b90509392505050565b600060208201905061105e6000830184610e1e565b92915050565b6000604082019050818103600083015261107e8185610e66565b905061108d6020830184610f94565b9392505050565b600060208201905081810360008301526110ad81610e9f565b9050919050565b600060208201905081810360008301526110cd81610edf565b9050919050565b600060208201905081810360008301526110ed81610f45565b9050919050565b60006020820190506111096000830184610f94565b92915050565b6000604051905081810181811067ffffffffffffffff8211171561113657611135611419565b5b8060405250919050565b600067ffffffffffffffff82111561115b5761115a611419565b5b601f19601f8301169050602081019050919050565b6000819050602082019050919050565b6000819050602082019050919050565b6000819050602082019050919050565b600081519050919050565b600081519050919050565b600081519050919050565b600081519050919050565b6000602082019050919050565b6000602082019050919050565b6000602082019050919050565b600082825260208201905092915050565b600082825260208201905092915050565b600082825260208201905092915050565b600082825260208201905092915050565b600082825260208201905092915050565b6000611253826112c7565b915061125e836112c7565b92508260ff03821115611274576112736113bb565b5b828201905092915050565b600061128a8261129d565b9050919050565b60008115159050919050565b600073ffffffffffffffffffffffffffffffffffffffff82169050919050565b6000819050919050565b600060ff82169050919050565b82818337600083830152505050565b60005b838110156113015780820151818401526020810190506112e6565b83811115611310576000848401525b50505050565b6000600282049050600182168061132e57607f821691505b60208210811415611342576113416113ea565b5b50919050565b6000611353826112bd565b91507fffffffffffffffffffffffffffffffffffffffffffffffffffffffffffffffff821415611386576113856113bb565b5b600182019050919050565b600061139c826112c7565b915060ff8214156113b0576113af6113bb565b5b600182019050919050565b7f4e487b7100000000000000000000000000000000000000000000000000000000600052601160045260246000fd5b7f4e487b7100000000000000000000000000000000000000000000000000000000600052602260045260246000fd5b7f4e487b7100000000000000000000000000000000000000000000000000000000600052604160045260246000fd5b6000601f19601f8301169050919050565b6114628161127f565b811461146d57600080fd5b50565b611479816112c7565b811461148457600080fd5b5056fea26469706673582212202be42f926306f86370b032e308afc5c29c4c2e251e80cf723605a217a6acc66564736f6c63430008000033",
  "immutableReferences": {},
  "source": "// SPDX-License-Identifier: MIT\r\n\r\npragma solidity 0.8.0;\r\n\r\ncontract VoteTimes {\r\n    address owner;  // Election Commissioner\r\n    bool isVoting;\r\n\r\n    uint256 startTime;\r\n    uint256 closeTime;\r\n    uint256 voterRegistrationTime;\r\n    uint256 candidateRegistrationTime;\r\n    \r\n    modifier voterRegistration {\r\n        require ( voterRegistrationTime>block.timestamp, \"Voter registration time over\");\r\n        _;\r\n    }\r\n    modifier candidateRegistration {\r\n        require ( candidateRegistrationTime>block.timestamp, \"Voter registration time over\");\r\n        _;\r\n    }\r\n    modifier votingTime {\r\n        require (startTime<block.timestamp && closeTime>block.timestamp, \"Not a valid time to vote\");\r\n        require(isVoting, \"Voting not open\");\r\n        _;\r\n    }\r\n    modifier beforeVoteTime {\r\n        require ( startTime>block.timestamp, \"Voting time started\");\r\n        _;\r\n    }\r\n    modifier afterVoteTime {\r\n        require(closeTime<block.timestamp, \"Voting time hasn't finished\");\r\n        _;\r\n    }\r\n    modifier onlyOwner {\r\n        require(msg.sender == owner, \"Only chairperson can give right to vote.\");\r\n        _;\r\n    }\r\n    \r\n    event startVoteEvent(address indexed admin, uint256 timestamp);\r\n    event stopVoteEvent(address indexed admin, uint256 timestamp);\r\n\r\n    \r\n}\r\n\r\ncontract Voting is VoteTimes{\r\n    \r\n    constructor()  {\r\n        isVoting = false;\r\n        owner = msg.sender;\r\n        \r\n    }\r\n    struct Vote {\r\n        uint8 proposalId;\r\n        uint256 timestamp;\r\n    }\r\n    struct Proposal {\r\n        string proposal;\r\n        uint256 timestamp;\r\n    }\r\n    \r\n    mapping(address => bool) voted;\r\n    uint8 proposalId;\r\n    mapping(uint8 => Proposal) public proposals;\r\n    uint8[] proposalNos;\r\n    string[] names;\r\n    \r\n    function addProposal (string memory _proposal) external  {\r\n        proposalId++;\r\n        proposals[proposalId] = Proposal(_proposal, block.timestamp);\r\n        proposalNos.push(proposalId);\r\n        names.push(_proposal);\r\n    }\r\n    function viewProposals() external view returns(uint8[] memory, string[] memory) {\r\n        \r\n        return (proposalNos,names);\r\n    }\r\n\r\n   // address[] voters;\r\n    uint256 public voterCount;\r\n    mapping(address => bool) isVoter;\r\n    function addVoter(address _voter) external onlyOwner  {\r\n     //   voters.push(_voter);\r\n        isVoter[_voter] = true;\r\n        voterCount++;\r\n    }\r\n    \r\n    modifier checkIfValidVoter (address _voter) {\r\n        require(isVoter[_voter], \"Not a valid voter\");\r\n        _;\r\n    }\r\n\r\n    mapping(uint8 => uint256) public proposalVoteCount;\r\n    //uint256[] public votecount;\r\n    event VoteCast(address Voter, uint256 Time);\r\n\r\n    function addVote(uint8 _proposalId) external  checkIfValidVoter(msg.sender) returns (bool) {    \r\n        require(!voted[msg.sender], \"This user has already Voted!\");\r\n        voted[msg.sender] = true;\r\n        proposalVoteCount[_proposalId] ++;\r\n        //votecount[_proposalId] = proposalVoteCount[_proposalId];\r\n        emit VoteCast(msg.sender, block.timestamp);\r\n        return true;\r\n    }\r\n    \r\n    function getProposalVoteCount() external view returns(uint8[] memory, uint256[] memory ) {\r\n        uint256[] memory votecount = new  uint256[](proposalId);\r\n        for (uint8 i=0; i<proposalId; i++){\r\n            votecount[i] = proposalVoteCount[i+1];\r\n        }\r\n        return (proposalNos, votecount);\r\n    }\r\n    \r\n    function startVote() external  returns (bool) {\r\n        isVoting = true;\r\n        emit startVoteEvent(msg.sender, block.timestamp);\r\n        return true;\r\n    }\r\n    \r\n    function stopVote() external  returns (bool) {\r\n        isVoting = false;\r\n        emit stopVoteEvent(msg.sender, block.timestamp);\r\n        return true;\r\n    }\r\n    \r\n}",
  "sourcePath": "C:\\Users\\admin\\OneDrive\\Desktop\\Great Learning\\contracts\\VoteDemo.sol",
  "compiler": {
    "name": "solc",
    "version": "0.8.0+commit.c7dfd78e.Emscripten.clang"
  },
  "schemaVersion": "3.1.0",
  "updatedAt": "2022-01-23T10:25:20.872Z",
  "networkType": "ethereum",
  "devdoc": {
    "kind": "dev",
    "methods": {},
    "version": 1
  },
  "userdoc": {
    "kind": "user",
    "methods": {},
    "version": 1
  }
}